{
  "_format": "hh-sol-artifact-1",
  "contractName": "CarRegistration",
  "sourceName": "contracts/CarRegistration.sol",
  "abi": [
    {
      "inputs": [
        {
          "internalType": "string",
          "name": "carNumber",
          "type": "string"
        }
      ],
      "name": "getCarByNumber",
      "outputs": [
        {
          "internalType": "string",
          "name": "make",
          "type": "string"
        },
        {
          "internalType": "uint32",
          "name": "model",
          "type": "uint32"
        },
        {
          "internalType": "string",
          "name": "varient",
          "type": "string"
        }
      ],
      "stateMutability": "view",
      "type": "function"
    },
    {
      "inputs": [
        {
          "internalType": "string",
          "name": "carNumber",
          "type": "string"
        }
      ],
      "name": "getOwnerByNumber",
      "outputs": [
        {
          "internalType": "address",
          "name": "owner",
          "type": "address"
        }
      ],
      "stateMutability": "view",
      "type": "function"
    },
    {
      "inputs": [
        {
          "internalType": "string",
          "name": "carNumber",
          "type": "string"
        },
        {
          "internalType": "string",
          "name": "carMake",
          "type": "string"
        },
        {
          "internalType": "uint32",
          "name": "carModel",
          "type": "uint32"
        },
        {
          "internalType": "string",
          "name": "carVarient",
          "type": "string"
        }
      ],
      "name": "insertCarDetails",
      "outputs": [],
      "stateMutability": "nonpayable",
      "type": "function"
    },
    {
      "inputs": [
        {
          "internalType": "string",
          "name": "carNumber",
          "type": "string"
        },
        {
          "internalType": "address",
          "name": "newOwner",
          "type": "address"
        }
      ],
      "name": "transfer",
      "outputs": [],
      "stateMutability": "nonpayable",
      "type": "function"
    }
  ],
  "bytecode": "0x608060405234801561001057600080fd5b50610bc5806100206000396000f3fe608060405234801561001057600080fd5b506004361061004c5760003560e01c8063a481300f14610051578063b848383214610136578063d817daa1146102e3578063fbf58b3e146104dc575b600080fd5b61010a6004803603602081101561006757600080fd5b810190808035906020019064010000000081111561008457600080fd5b82018360208201111561009657600080fd5b803590602001918460018302840111640100000000831117156100b857600080fd5b91908080601f016020809104026020016040519081016040528093929190818152602001838380828437600081840152601f19601f8201169050808301925050505050505091929192905050506105b7565b604051808273ffffffffffffffffffffffffffffffffffffffff16815260200191505060405180910390f35b6101ef6004803603602081101561014c57600080fd5b810190808035906020019064010000000081111561016957600080fd5b82018360208201111561017b57600080fd5b8035906020019184600183028401116401000000008311171561019d57600080fd5b91908080601f016020809104026020016040519081016040528093929190818152602001838380828437600081840152601f19601f82011690508083019250505050505050919291929050505061064c565b60405180806020018463ffffffff16815260200180602001838103835286818151815260200191508051906020019080838360005b8381101561023f578082015181840152602081019050610224565b50505050905090810190601f16801561026c5780820380516001836020036101000a031916815260200191505b50838103825284818151815260200191508051906020019080838360005b838110156102a557808201518184015260208101905061028a565b50505050905090810190601f1680156102d25780820380516001836020036101000a031916815260200191505b509550505050505060405180910390f35b6104da600480360360808110156102f957600080fd5b810190808035906020019064010000000081111561031657600080fd5b82018360208201111561032857600080fd5b8035906020019184600183028401116401000000008311171561034a57600080fd5b91908080601f016020809104026020016040519081016040528093929190818152602001838380828437600081840152601f19601f820116905080830192505050505050509192919290803590602001906401000000008111156103ad57600080fd5b8201836020820111156103bf57600080fd5b803590602001918460018302840111640100000000831117156103e157600080fd5b91908080601f016020809104026020016040519081016040528093929190818152602001838380828437600081840152601f19601f820116905080830192505050505050509192919290803563ffffffff1690602001909291908035906020019064010000000081111561045457600080fd5b82018360208201111561046657600080fd5b8035906020019184600183028401116401000000008311171561048857600080fd5b91908080601f016020809104026020016040519081016040528093929190818152602001838380828437600081840152601f19601f8201169050808301925050505050505091929192905050506108ec565b005b6105b5600480360360408110156104f257600080fd5b810190808035906020019064010000000081111561050f57600080fd5b82018360208201111561052157600080fd5b8035906020019184600183028401116401000000008311171561054357600080fd5b91908080601f016020809104026020016040519081016040528093929190818152602001838380828437600081840152601f19601f820116905080830192505050505050509192919290803573ffffffffffffffffffffffffffffffffffffffff169060200190929190505050610a43565b005b600080826040518082805190602001908083835b602083106105ee57805182526020820191506020810190506020830392506105cb565b6001836020036101000a038019825116818451168082178552505050505050905001915050908152602001604051809103902060030160009054906101000a900473ffffffffffffffffffffffffffffffffffffffff169050919050565b6060600060606000846040518082805190602001908083835b602083106106885780518252602082019150602081019050602083039250610665565b6001836020036101000a03801982511681845116808217855250505050505090500191505090815260200160405180910390206000016000856040518082805190602001908083835b602083106106f457805182526020820191506020810190506020830392506106d1565b6001836020036101000a038019825116818451168082178552505050505050905001915050908152602001604051809103902060010160009054906101000a900463ffffffff166000866040518082805190602001908083835b60208310610771578051825260208201915060208101905060208303925061074e565b6001836020036101000a0380198251168184511680821785525050505050509050019150509081526020016040518091039020600201828054600181600116156101000203166002900480601f01602080910402602001604051908101604052809291908181526020018280546001816001161561010002031660029004801561083c5780601f106108115761010080835404028352916020019161083c565b820191906000526020600020905b81548152906001019060200180831161081f57829003601f168201915b50505050509250808054600181600116156101000203166002900480601f0160208091040260200160405190810160405280929190818152602001828054600181600116156101000203166002900480156108d85780601f106108ad576101008083540402835291602001916108d8565b820191906000526020600020905b8154815290600101906020018083116108bb57829003601f168201915b505050505090509250925092509193909250565b60405180608001604052808481526020018363ffffffff1681526020018281526020013373ffffffffffffffffffffffffffffffffffffffff168152506000856040518082805190602001908083835b6020831061095f578051825260208201915060208101905060208303925061093c565b6001836020036101000a038019825116818451168082178552505050505050905001915050908152602001604051809103902060008201518160000190805190602001906109ae929190610af2565b5060208201518160010160006101000a81548163ffffffff021916908363ffffffff16021790555060408201518160020190805190602001906109f2929190610af2565b5060608201518160030160006101000a81548173ffffffffffffffffffffffffffffffffffffffff021916908373ffffffffffffffffffffffffffffffffffffffff16021790555090505050505050565b806000836040518082805190602001908083835b60208310610a7a5780518252602082019150602081019050602083039250610a57565b6001836020036101000a038019825116818451168082178552505050505050905001915050908152602001604051809103902060030160006101000a81548173ffffffffffffffffffffffffffffffffffffffff021916908373ffffffffffffffffffffffffffffffffffffffff1602179055505050565b828054600181600116156101000203166002900490600052602060002090601f016020900481019282601f10610b3357805160ff1916838001178555610b61565b82800160010185558215610b61579182015b82811115610b60578251825591602001919060010190610b45565b5b509050610b6e9190610b72565b5090565b5b80821115610b8b576000816000905550600101610b73565b509056fea26469706673582212208616e6ba269da2de749bea0fce3cae4a7d4a47f1050e5f4162b67c3759e22fa864736f6c63430007030033",
  "linkReferences": {},
  "deployedLinkReferences": {}
}